{
  "_format": "hh-sol-artifact-1",
  "contractName": "ToonVerse",
  "sourceName": "contracts/ToonVerse.sol",
  "abi": [
    {
      "inputs": [],
      "stateMutability": "nonpayable",
      "type": "constructor"
    },
    {
      "anonymous": false,
      "inputs": [
        {
          "indexed": true,
          "internalType": "address",
          "name": "owner",
          "type": "address"
        },
        {
          "indexed": true,
          "internalType": "address",
          "name": "approved",
          "type": "address"
        },
        {
          "indexed": true,
          "internalType": "uint256",
          "name": "tokenId",
          "type": "uint256"
        }
      ],
      "name": "Approval",
      "type": "event"
    },
    {
      "anonymous": false,
      "inputs": [
        {
          "indexed": true,
          "internalType": "address",
          "name": "owner",
          "type": "address"
        },
        {
          "indexed": true,
          "internalType": "address",
          "name": "operator",
          "type": "address"
        },
        {
          "indexed": false,
          "internalType": "bool",
          "name": "approved",
          "type": "bool"
        }
      ],
      "name": "ApprovalForAll",
      "type": "event"
    },
    {
      "anonymous": false,
      "inputs": [
        {
          "indexed": true,
          "internalType": "address",
          "name": "previousOwner",
          "type": "address"
        },
        {
          "indexed": true,
          "internalType": "address",
          "name": "newOwner",
          "type": "address"
        }
      ],
      "name": "OwnershipTransferred",
      "type": "event"
    },
    {
      "anonymous": false,
      "inputs": [
        {
          "indexed": true,
          "internalType": "address",
          "name": "from",
          "type": "address"
        },
        {
          "indexed": true,
          "internalType": "address",
          "name": "to",
          "type": "address"
        },
        {
          "indexed": true,
          "internalType": "uint256",
          "name": "tokenId",
          "type": "uint256"
        }
      ],
      "name": "Transfer",
      "type": "event"
    },
    {
      "inputs": [
        {
          "internalType": "address",
          "name": "to",
          "type": "address"
        },
        {
          "internalType": "uint256",
          "name": "tokenId",
          "type": "uint256"
        }
      ],
      "name": "approve",
      "outputs": [],
      "stateMutability": "nonpayable",
      "type": "function"
    },
    {
      "inputs": [
        {
          "internalType": "address",
          "name": "owner",
          "type": "address"
        }
      ],
      "name": "balanceOf",
      "outputs": [
        {
          "internalType": "uint256",
          "name": "",
          "type": "uint256"
        }
      ],
      "stateMutability": "view",
      "type": "function"
    },
    {
      "inputs": [
        {
          "internalType": "uint256",
          "name": "tokenId",
          "type": "uint256"
        }
      ],
      "name": "burnNFT",
      "outputs": [],
      "stateMutability": "nonpayable",
      "type": "function"
    },
    {
      "inputs": [
        {
          "internalType": "uint256",
          "name": "tokenId",
          "type": "uint256"
        }
      ],
      "name": "getApproved",
      "outputs": [
        {
          "internalType": "address",
          "name": "",
          "type": "address"
        }
      ],
      "stateMutability": "view",
      "type": "function"
    },
    {
      "inputs": [
        {
          "internalType": "address",
          "name": "owner",
          "type": "address"
        },
        {
          "internalType": "address",
          "name": "operator",
          "type": "address"
        }
      ],
      "name": "isApprovedForAll",
      "outputs": [
        {
          "internalType": "bool",
          "name": "",
          "type": "bool"
        }
      ],
      "stateMutability": "view",
      "type": "function"
    },
    {
      "inputs": [
        {
          "internalType": "address",
          "name": "recipient",
          "type": "address"
        },
        {
          "internalType": "string",
          "name": "tokenURI",
          "type": "string"
        }
      ],
      "name": "mintNFT",
      "outputs": [
        {
          "internalType": "uint256",
          "name": "",
          "type": "uint256"
        }
      ],
      "stateMutability": "nonpayable",
      "type": "function"
    },
    {
      "inputs": [
        {
          "internalType": "address",
          "name": "recipient",
          "type": "address"
        },
        {
          "internalType": "string",
          "name": "tokenURI",
          "type": "string"
        },
        {
          "internalType": "address",
          "name": "royaltyReceiver",
          "type": "address"
        },
        {
          "internalType": "uint96",
          "name": "feeNumerator",
          "type": "uint96"
        }
      ],
      "name": "mintNFTWithRoyalty",
      "outputs": [
        {
          "internalType": "uint256",
          "name": "",
          "type": "uint256"
        }
      ],
      "stateMutability": "nonpayable",
      "type": "function"
    },
    {
      "inputs": [],
      "name": "name",
      "outputs": [
        {
          "internalType": "string",
          "name": "",
          "type": "string"
        }
      ],
      "stateMutability": "view",
      "type": "function"
    },
    {
      "inputs": [],
      "name": "owner",
      "outputs": [
        {
          "internalType": "address",
          "name": "",
          "type": "address"
        }
      ],
      "stateMutability": "view",
      "type": "function"
    },
    {
      "inputs": [
        {
          "internalType": "uint256",
          "name": "tokenId",
          "type": "uint256"
        }
      ],
      "name": "ownerOf",
      "outputs": [
        {
          "internalType": "address",
          "name": "",
          "type": "address"
        }
      ],
      "stateMutability": "view",
      "type": "function"
    },
    {
      "inputs": [],
      "name": "renounceOwnership",
      "outputs": [],
      "stateMutability": "nonpayable",
      "type": "function"
    },
    {
      "inputs": [
        {
          "internalType": "uint256",
          "name": "_tokenId",
          "type": "uint256"
        },
        {
          "internalType": "uint256",
          "name": "_salePrice",
          "type": "uint256"
        }
      ],
      "name": "royaltyInfo",
      "outputs": [
        {
          "internalType": "address",
          "name": "",
          "type": "address"
        },
        {
          "internalType": "uint256",
          "name": "",
          "type": "uint256"
        }
      ],
      "stateMutability": "view",
      "type": "function"
    },
    {
      "inputs": [
        {
          "internalType": "address",
          "name": "from",
          "type": "address"
        },
        {
          "internalType": "address",
          "name": "to",
          "type": "address"
        },
        {
          "internalType": "uint256",
          "name": "tokenId",
          "type": "uint256"
        }
      ],
      "name": "safeTransferFrom",
      "outputs": [],
      "stateMutability": "nonpayable",
      "type": "function"
    },
    {
      "inputs": [
        {
          "internalType": "address",
          "name": "from",
          "type": "address"
        },
        {
          "internalType": "address",
          "name": "to",
          "type": "address"
        },
        {
          "internalType": "uint256",
          "name": "tokenId",
          "type": "uint256"
        },
        {
          "internalType": "bytes",
          "name": "data",
          "type": "bytes"
        }
      ],
      "name": "safeTransferFrom",
      "outputs": [],
      "stateMutability": "nonpayable",
      "type": "function"
    },
    {
      "inputs": [
        {
          "internalType": "address",
          "name": "operator",
          "type": "address"
        },
        {
          "internalType": "bool",
          "name": "approved",
          "type": "bool"
        }
      ],
      "name": "setApprovalForAll",
      "outputs": [],
      "stateMutability": "nonpayable",
      "type": "function"
    },
    {
      "inputs": [
        {
          "internalType": "bytes4",
          "name": "interfaceId",
          "type": "bytes4"
        }
      ],
      "name": "supportsInterface",
      "outputs": [
        {
          "internalType": "bool",
          "name": "",
          "type": "bool"
        }
      ],
      "stateMutability": "view",
      "type": "function"
    },
    {
      "inputs": [],
      "name": "symbol",
      "outputs": [
        {
          "internalType": "string",
          "name": "",
          "type": "string"
        }
      ],
      "stateMutability": "view",
      "type": "function"
    },
    {
      "inputs": [
        {
          "internalType": "uint256",
          "name": "tokenId",
          "type": "uint256"
        }
      ],
      "name": "tokenURI",
      "outputs": [
        {
          "internalType": "string",
          "name": "",
          "type": "string"
        }
      ],
      "stateMutability": "view",
      "type": "function"
    },
    {
      "inputs": [
        {
          "internalType": "address",
          "name": "from",
          "type": "address"
        },
        {
          "internalType": "address",
          "name": "to",
          "type": "address"
        },
        {
          "internalType": "uint256",
          "name": "tokenId",
          "type": "uint256"
        }
      ],
      "name": "transferFrom",
      "outputs": [],
      "stateMutability": "nonpayable",
      "type": "function"
    },
    {
      "inputs": [
        {
          "internalType": "address",
          "name": "newOwner",
          "type": "address"
        }
      ],
      "name": "transferOwnership",
      "outputs": [],
      "stateMutability": "nonpayable",
      "type": "function"
    }
  ],
  "bytecode": "0x60806040523480156200001157600080fd5b506040518060400160405280600981526020017f546f6f6e566572736500000000000000000000000000000000000000000000008152506040518060400160405280600281526020017f545600000000000000000000000000000000000000000000000000000000000081525081600090805190602001906200009692919062000368565b508060019080519060200190620000af92919062000368565b505050620000d2620000c6620000ec60201b60201c565b620000f460201b60201c565b620000e6336101f4620001ba60201b60201c565b62000598565b600033905090565b6000600960009054906101000a900473ffffffffffffffffffffffffffffffffffffffff16905081600960006101000a81548173ffffffffffffffffffffffffffffffffffffffff021916908373ffffffffffffffffffffffffffffffffffffffff1602179055508173ffffffffffffffffffffffffffffffffffffffff168173ffffffffffffffffffffffffffffffffffffffff167f8be0079c531659141344cd1fd0a4f28419497f9722a3daafe3b4186f6b6457e060405160405180910390a35050565b620001ca6200035e60201b60201c565b6bffffffffffffffffffffffff16816bffffffffffffffffffffffff1611156200022b576040517f08c379a0000000000000000000000000000000000000000000000000000000008152600401620002229062000466565b60405180910390fd5b600073ffffffffffffffffffffffffffffffffffffffff168273ffffffffffffffffffffffffffffffffffffffff1614156200029e576040517f08c379a0000000000000000000000000000000000000000000000000000000008152600401620002959062000488565b60405180910390fd5b60405180604001604052808373ffffffffffffffffffffffffffffffffffffffff168152602001826bffffffffffffffffffffffff16815250600760008201518160000160006101000a81548173ffffffffffffffffffffffffffffffffffffffff021916908373ffffffffffffffffffffffffffffffffffffffff16021790555060208201518160000160146101000a8154816bffffffffffffffffffffffff02191690836bffffffffffffffffffffffff1602179055509050505050565b6000612710905090565b8280546200037690620004bb565b90600052602060002090601f0160209004810192826200039a5760008555620003e6565b82601f10620003b557805160ff1916838001178555620003e6565b82800160010185558215620003e6579182015b82811115620003e5578251825591602001919060010190620003c8565b5b509050620003f59190620003f9565b5090565b5b8082111562000414576000816000905550600101620003fa565b5090565b600062000427602a83620004aa565b9150620004348262000520565b604082019050919050565b60006200044e601983620004aa565b91506200045b826200056f565b602082019050919050565b60006020820190508181036000830152620004818162000418565b9050919050565b60006020820190508181036000830152620004a3816200043f565b9050919050565b600082825260208201905092915050565b60006002820490506001821680620004d457607f821691505b60208210811415620004eb57620004ea620004f1565b5b50919050565b7f4e487b7100000000000000000000000000000000000000000000000000000000600052602260045260246000fd5b7f455243323938313a20726f79616c7479206665652077696c6c2065786365656460008201527f2073616c65507269636500000000000000000000000000000000000000000000602082015250565b7f455243323938313a20696e76616c696420726563656976657200000000000000600082015250565b6135ec80620005a86000396000f3fe608060405234801561001057600080fd5b506004361061012c5760003560e01c8063715018a6116100ad578063b88d4fde11610071578063b88d4fde14610342578063c87b56dd1461035e578063e985e9c51461038e578063eacabe14146103be578063f2fde38b146103ee5761012c565b8063715018a6146102b057806375eacc20146102ba5780638da5cb5b146102ea57806395d89b4114610308578063a22cb465146103265761012c565b80632890e0d7116100f45780632890e0d7146101e75780632a55205a1461020357806342842e0e146102345780636352211e1461025057806370a08231146102805761012c565b806301ffc9a71461013157806306fdde0314610161578063081812fc1461017f578063095ea7b3146101af57806323b872dd146101cb575b600080fd5b61014b6004803603810190610146919061261d565b61040a565b6040516101589190612a88565b60405180910390f35b61016961041c565b6040516101769190612aa3565b60405180910390f35b6101996004803603810190610194919061266f565b6104ae565b6040516101a691906129f8565b60405180910390f35b6101c960048036038101906101c491906125e1565b6104f4565b005b6101e560048036038101906101e0919061240c565b61060c565b005b61020160048036038101906101fc919061266f565b61066c565b005b61021d60048036038101906102189190612698565b610678565b60405161022b929190612a5f565b60405180910390f35b61024e6004803603810190610249919061240c565b610863565b005b61026a6004803603810190610265919061266f565b610883565b60405161027791906129f8565b60405180910390f35b61029a600480360381019061029591906123a7565b610935565b6040516102a79190612cc5565b60405180910390f35b6102b86109ed565b005b6102d460048036038101906102cf9190612566565b610a01565b6040516102e19190612cc5565b60405180910390f35b6102f2610a27565b6040516102ff91906129f8565b60405180910390f35b610310610a51565b60405161031d9190612aa3565b60405180910390f35b610340600480360381019061033b91906124d6565b610ae3565b005b61035c6004803603810190610357919061245b565b610af9565b005b6103786004803603810190610373919061266f565b610b5b565b6040516103859190612aa3565b60405180910390f35b6103a860048036038101906103a391906123d0565b610c6e565b6040516103b59190612a88565b60405180910390f35b6103d860048036038101906103d39190612512565b610d02565b6040516103e59190612cc5565b60405180910390f35b610408600480360381019061040391906123a7565b610d3a565b005b600061041582610dbe565b9050919050565b60606000805461042b90612f8d565b80601f016020809104026020016040519081016040528092919081815260200182805461045790612f8d565b80156104a45780601f10610479576101008083540402835291602001916104a4565b820191906000526020600020905b81548152906001019060200180831161048757829003601f168201915b5050505050905090565b60006104b982610e38565b6004600083815260200190815260200160002060009054906101000a900473ffffffffffffffffffffffffffffffffffffffff169050919050565b60006104ff82610883565b90508073ffffffffffffffffffffffffffffffffffffffff168373ffffffffffffffffffffffffffffffffffffffff161415610570576040517f08c379a000000000000000000000000000000000000000000000000000000000815260040161056790612c45565b60405180910390fd5b8073ffffffffffffffffffffffffffffffffffffffff1661058f610e83565b73ffffffffffffffffffffffffffffffffffffffff1614806105be57506105bd816105b8610e83565b610c6e565b5b6105fd576040517f08c379a00000000000000000000000000000000000000000000000000000000081526004016105f490612bc5565b60405180910390fd5b6106078383610e8b565b505050565b61061d610617610e83565b82610f44565b61065c576040517f08c379a000000000000000000000000000000000000000000000000000000000815260040161065390612ca5565b60405180910390fd5b610667838383610fd9565b505050565b61067581611240565b50565b6000806000600860008681526020019081526020016000206040518060400160405290816000820160009054906101000a900473ffffffffffffffffffffffffffffffffffffffff1673ffffffffffffffffffffffffffffffffffffffff1673ffffffffffffffffffffffffffffffffffffffff1681526020016000820160149054906101000a90046bffffffffffffffffffffffff166bffffffffffffffffffffffff166bffffffffffffffffffffffff16815250509050600073ffffffffffffffffffffffffffffffffffffffff16816000015173ffffffffffffffffffffffffffffffffffffffff16141561080e5760076040518060400160405290816000820160009054906101000a900473ffffffffffffffffffffffffffffffffffffffff1673ffffffffffffffffffffffffffffffffffffffff1673ffffffffffffffffffffffffffffffffffffffff1681526020016000820160149054906101000a90046bffffffffffffffffffffffff166bffffffffffffffffffffffff166bffffffffffffffffffffffff168152505090505b6000610818611255565b6bffffffffffffffffffffffff1682602001516bffffffffffffffffffffffff16866108449190612e31565b61084e9190612e00565b90508160000151819350935050509250929050565b61087e83838360405180602001604052806000815250610af9565b505050565b6000806002600084815260200190815260200160002060009054906101000a900473ffffffffffffffffffffffffffffffffffffffff169050600073ffffffffffffffffffffffffffffffffffffffff168173ffffffffffffffffffffffffffffffffffffffff16141561092c576040517f08c379a000000000000000000000000000000000000000000000000000000000815260040161092390612c25565b60405180910390fd5b80915050919050565b60008073ffffffffffffffffffffffffffffffffffffffff168273ffffffffffffffffffffffffffffffffffffffff1614156109a6576040517f08c379a000000000000000000000000000000000000000000000000000000000815260040161099d90612b85565b60405180910390fd5b600360008373ffffffffffffffffffffffffffffffffffffffff1673ffffffffffffffffffffffffffffffffffffffff168152602001908152602001600020549050919050565b6109f561125f565b6109ff60006112dd565b565b600080610a0e8686610d02565b9050610a1b8185856113a3565b80915050949350505050565b6000600960009054906101000a900473ffffffffffffffffffffffffffffffffffffffff16905090565b606060018054610a6090612f8d565b80601f0160208091040260200160405190810160405280929190818152602001828054610a8c90612f8d565b8015610ad95780601f10610aae57610100808354040283529160200191610ad9565b820191906000526020600020905b815481529060010190602001808311610abc57829003601f168201915b5050505050905090565b610af5610aee610e83565b838361154b565b5050565b610b0a610b04610e83565b83610f44565b610b49576040517f08c379a0000000000000000000000000000000000000000000000000000000008152600401610b4090612ca5565b60405180910390fd5b610b55848484846116b8565b50505050565b6060610b6682610e38565b6000600660008481526020019081526020016000208054610b8690612f8d565b80601f0160208091040260200160405190810160405280929190818152602001828054610bb290612f8d565b8015610bff5780601f10610bd457610100808354040283529160200191610bff565b820191906000526020600020905b815481529060010190602001808311610be257829003601f168201915b505050505090506000610c10611714565b9050600081511415610c26578192505050610c69565b600082511115610c5b578082604051602001610c439291906129d4565b60405160208183030381529060405292505050610c69565b610c648461172b565b925050505b919050565b6000600560008473ffffffffffffffffffffffffffffffffffffffff1673ffffffffffffffffffffffffffffffffffffffff16815260200190815260200160002060008373ffffffffffffffffffffffffffffffffffffffff1673ffffffffffffffffffffffffffffffffffffffff16815260200190815260200160002060009054906101000a900460ff16905092915050565b6000610d0e600a611793565b6000610d1a600a6117a9565b9050610d2684826117b7565b610d3081846117d5565b8091505092915050565b610d4261125f565b600073ffffffffffffffffffffffffffffffffffffffff168173ffffffffffffffffffffffffffffffffffffffff161415610db2576040517f08c379a0000000000000000000000000000000000000000000000000000000008152600401610da990612ae5565b60405180910390fd5b610dbb816112dd565b50565b60007f2a55205a000000000000000000000000000000000000000000000000000000007bffffffffffffffffffffffffffffffffffffffffffffffffffffffff1916827bffffffffffffffffffffffffffffffffffffffffffffffffffffffff19161480610e315750610e3082611849565b5b9050919050565b610e418161192b565b610e80576040517f08c379a0000000000000000000000000000000000000000000000000000000008152600401610e7790612c25565b60405180910390fd5b50565b600033905090565b816004600083815260200190815260200160002060006101000a81548173ffffffffffffffffffffffffffffffffffffffff021916908373ffffffffffffffffffffffffffffffffffffffff160217905550808273ffffffffffffffffffffffffffffffffffffffff16610efe83610883565b73ffffffffffffffffffffffffffffffffffffffff167f8c5be1e5ebec7d5bd14f71427d1e84f3dd0314c0f7b2291e5b200ac8c7c3b92560405160405180910390a45050565b600080610f5083610883565b90508073ffffffffffffffffffffffffffffffffffffffff168473ffffffffffffffffffffffffffffffffffffffff161480610f925750610f918185610c6e565b5b80610fd057508373ffffffffffffffffffffffffffffffffffffffff16610fb8846104ae565b73ffffffffffffffffffffffffffffffffffffffff16145b91505092915050565b8273ffffffffffffffffffffffffffffffffffffffff16610ff982610883565b73ffffffffffffffffffffffffffffffffffffffff161461104f576040517f08c379a000000000000000000000000000000000000000000000000000000000815260040161104690612b05565b60405180910390fd5b600073ffffffffffffffffffffffffffffffffffffffff168273ffffffffffffffffffffffffffffffffffffffff1614156110bf576040517f08c379a00000000000000000000000000000000000000000000000000000000081526004016110b690612b45565b60405180910390fd5b6110ca838383611997565b6110d5600082610e8b565b6001600360008573ffffffffffffffffffffffffffffffffffffffff1673ffffffffffffffffffffffffffffffffffffffff16815260200190815260200160002060008282546111259190612e8b565b925050819055506001600360008473ffffffffffffffffffffffffffffffffffffffff1673ffffffffffffffffffffffffffffffffffffffff168152602001908152602001600020600082825461117c9190612daa565b92505081905550816002600083815260200190815260200160002060006101000a81548173ffffffffffffffffffffffffffffffffffffffff021916908373ffffffffffffffffffffffffffffffffffffffff160217905550808273ffffffffffffffffffffffffffffffffffffffff168473ffffffffffffffffffffffffffffffffffffffff167fddf252ad1be2c89b69c2b068fc378daa952ba7f163c4a11628f55a4df523b3ef60405160405180910390a461123b83838361199c565b505050565b611249816119a1565b611252816119f4565b50565b6000612710905090565b611267610e83565b73ffffffffffffffffffffffffffffffffffffffff16611285610a27565b73ffffffffffffffffffffffffffffffffffffffff16146112db576040517f08c379a00000000000000000000000000000000000000000000000000000000081526004016112d290612c05565b60405180910390fd5b565b6000600960009054906101000a900473ffffffffffffffffffffffffffffffffffffffff16905081600960006101000a81548173ffffffffffffffffffffffffffffffffffffffff021916908373ffffffffffffffffffffffffffffffffffffffff1602179055508173ffffffffffffffffffffffffffffffffffffffff168173ffffffffffffffffffffffffffffffffffffffff167f8be0079c531659141344cd1fd0a4f28419497f9722a3daafe3b4186f6b6457e060405160405180910390a35050565b6113ab611255565b6bffffffffffffffffffffffff16816bffffffffffffffffffffffff161115611409576040517f08c379a000000000000000000000000000000000000000000000000000000000815260040161140090612c85565b60405180910390fd5b600073ffffffffffffffffffffffffffffffffffffffff168273ffffffffffffffffffffffffffffffffffffffff161415611479576040517f08c379a000000000000000000000000000000000000000000000000000000000815260040161147090612c65565b60405180910390fd5b60405180604001604052808373ffffffffffffffffffffffffffffffffffffffff168152602001826bffffffffffffffffffffffff168152506008600085815260200190815260200160002060008201518160000160006101000a81548173ffffffffffffffffffffffffffffffffffffffff021916908373ffffffffffffffffffffffffffffffffffffffff16021790555060208201518160000160146101000a8154816bffffffffffffffffffffffff02191690836bffffffffffffffffffffffff160217905550905050505050565b8173ffffffffffffffffffffffffffffffffffffffff168373ffffffffffffffffffffffffffffffffffffffff1614156115ba576040517f08c379a00000000000000000000000000000000000000000000000000000000081526004016115b190612b65565b60405180910390fd5b80600560008573ffffffffffffffffffffffffffffffffffffffff1673ffffffffffffffffffffffffffffffffffffffff16815260200190815260200160002060008473ffffffffffffffffffffffffffffffffffffffff1673ffffffffffffffffffffffffffffffffffffffff16815260200190815260200160002060006101000a81548160ff0219169083151502179055508173ffffffffffffffffffffffffffffffffffffffff168373ffffffffffffffffffffffffffffffffffffffff167f17307eab39ab6107e8899845ad3d59bd9653f200f220920489ca2b5937696c31836040516116ab9190612a88565b60405180910390a3505050565b6116c3848484610fd9565b6116cf84848484611a53565b61170e576040517f08c379a000000000000000000000000000000000000000000000000000000000815260040161170590612ac5565b60405180910390fd5b50505050565b606060405180602001604052806000815250905090565b606061173682610e38565b6000611740611714565b90506000815111611760576040518060200160405280600081525061178b565b8061176a84611bea565b60405160200161177b9291906129d4565b6040516020818303038152906040525b915050919050565b6001816000016000828254019250508190555050565b600081600001549050919050565b6117d1828260405180602001604052806000815250611d97565b5050565b6117de8261192b565b61181d576040517f08c379a000000000000000000000000000000000000000000000000000000000815260040161181490612ba5565b60405180910390fd5b80600660008481526020019081526020016000209080519060200190611844929190612176565b505050565b60007f80ac58cd000000000000000000000000000000000000000000000000000000007bffffffffffffffffffffffffffffffffffffffffffffffffffffffff1916827bffffffffffffffffffffffffffffffffffffffffffffffffffffffff1916148061191457507f5b5e139f000000000000000000000000000000000000000000000000000000007bffffffffffffffffffffffffffffffffffffffffffffffffffffffff1916827bffffffffffffffffffffffffffffffffffffffffffffffffffffffff1916145b80611924575061192382611df2565b5b9050919050565b60008073ffffffffffffffffffffffffffffffffffffffff166002600084815260200190815260200160002060009054906101000a900473ffffffffffffffffffffffffffffffffffffffff1673ffffffffffffffffffffffffffffffffffffffff1614159050919050565b505050565b505050565b6119aa81611e5c565b60006006600083815260200190815260200160002080546119ca90612f8d565b9050146119f1576006600082815260200190815260200160002060006119f091906121fc565b5b50565b60086000828152602001908152602001600020600080820160006101000a81549073ffffffffffffffffffffffffffffffffffffffff02191690556000820160146101000a8154906bffffffffffffffffffffffff0219169055505050565b6000611a748473ffffffffffffffffffffffffffffffffffffffff16611f79565b15611bdd578373ffffffffffffffffffffffffffffffffffffffff1663150b7a02611a9d610e83565b8786866040518563ffffffff1660e01b8152600401611abf9493929190612a13565b602060405180830381600087803b158015611ad957600080fd5b505af1925050508015611b0a57506040513d601f19601f82011682018060405250810190611b079190612646565b60015b611b8d573d8060008114611b3a576040519150601f19603f3d011682016040523d82523d6000602084013e611b3f565b606091505b50600081511415611b85576040517f08c379a0000000000000000000000000000000000000000000000000000000008152600401611b7c90612ac5565b60405180910390fd5b805181602001fd5b63150b7a0260e01b7bffffffffffffffffffffffffffffffffffffffffffffffffffffffff1916817bffffffffffffffffffffffffffffffffffffffffffffffffffffffff191614915050611be2565b600190505b949350505050565b60606000821415611c32576040518060400160405280600181526020017f30000000000000000000000000000000000000000000000000000000000000008152509050611d92565b600082905060005b60008214611c64578080611c4d90612ff0565b915050600a82611c5d9190612e00565b9150611c3a565b60008167ffffffffffffffff811115611ca6577f4e487b7100000000000000000000000000000000000000000000000000000000600052604160045260246000fd5b6040519080825280601f01601f191660200182016040528015611cd85781602001600182028036833780820191505090505b5090505b60008514611d8b57600182611cf19190612e8b565b9150600a85611d009190613039565b6030611d0c9190612daa565b60f81b818381518110611d48577f4e487b7100000000000000000000000000000000000000000000000000000000600052603260045260246000fd5b60200101907effffffffffffffffffffffffffffffffffffffffffffffffffffffffffffff1916908160001a905350600a85611d849190612e00565b9450611cdc565b8093505050505b919050565b611da18383611f9c565b611dae6000848484611a53565b611ded576040517f08c379a0000000000000000000000000000000000000000000000000000000008152600401611de490612ac5565b60405180910390fd5b505050565b60007f01ffc9a7000000000000000000000000000000000000000000000000000000007bffffffffffffffffffffffffffffffffffffffffffffffffffffffff1916827bffffffffffffffffffffffffffffffffffffffffffffffffffffffff1916149050919050565b6000611e6782610883565b9050611e7581600084611997565b611e80600083610e8b565b6001600360008373ffffffffffffffffffffffffffffffffffffffff1673ffffffffffffffffffffffffffffffffffffffff1681526020019081526020016000206000828254611ed09190612e8b565b925050819055506002600083815260200190815260200160002060006101000a81549073ffffffffffffffffffffffffffffffffffffffff021916905581600073ffffffffffffffffffffffffffffffffffffffff168273ffffffffffffffffffffffffffffffffffffffff167fddf252ad1be2c89b69c2b068fc378daa952ba7f163c4a11628f55a4df523b3ef60405160405180910390a4611f758160008461199c565b5050565b6000808273ffffffffffffffffffffffffffffffffffffffff163b119050919050565b600073ffffffffffffffffffffffffffffffffffffffff168273ffffffffffffffffffffffffffffffffffffffff16141561200c576040517f08c379a000000000000000000000000000000000000000000000000000000000815260040161200390612be5565b60405180910390fd5b6120158161192b565b15612055576040517f08c379a000000000000000000000000000000000000000000000000000000000815260040161204c90612b25565b60405180910390fd5b61206160008383611997565b6001600360008473ffffffffffffffffffffffffffffffffffffffff1673ffffffffffffffffffffffffffffffffffffffff16815260200190815260200160002060008282546120b19190612daa565b92505081905550816002600083815260200190815260200160002060006101000a81548173ffffffffffffffffffffffffffffffffffffffff021916908373ffffffffffffffffffffffffffffffffffffffff160217905550808273ffffffffffffffffffffffffffffffffffffffff16600073ffffffffffffffffffffffffffffffffffffffff167fddf252ad1be2c89b69c2b068fc378daa952ba7f163c4a11628f55a4df523b3ef60405160405180910390a46121726000838361199c565b5050565b82805461218290612f8d565b90600052602060002090601f0160209004810192826121a457600085556121eb565b82601f106121bd57805160ff19168380011785556121eb565b828001600101855582156121eb579182015b828111156121ea5782518255916020019190600101906121cf565b5b5090506121f8919061223c565b5090565b50805461220890612f8d565b6000825580601f1061221a5750612239565b601f016020900490600052602060002090810190612238919061223c565b5b50565b5b8082111561225557600081600090555060010161223d565b5090565b600061226c61226784612d05565b612ce0565b90508281526020810184848401111561228457600080fd5b61228f848285612f4b565b509392505050565b60006122aa6122a584612d36565b612ce0565b9050828152602081018484840111156122c257600080fd5b6122cd848285612f4b565b509392505050565b6000813590506122e481613543565b92915050565b6000813590506122f98161355a565b92915050565b60008135905061230e81613571565b92915050565b60008151905061232381613571565b92915050565b600082601f83011261233a57600080fd5b813561234a848260208601612259565b91505092915050565b600082601f83011261236457600080fd5b8135612374848260208601612297565b91505092915050565b60008135905061238c81613588565b92915050565b6000813590506123a18161359f565b92915050565b6000602082840312156123b957600080fd5b60006123c7848285016122d5565b91505092915050565b600080604083850312156123e357600080fd5b60006123f1858286016122d5565b9250506020612402858286016122d5565b9150509250929050565b60008060006060848603121561242157600080fd5b600061242f868287016122d5565b9350506020612440868287016122d5565b92505060406124518682870161237d565b9150509250925092565b6000806000806080858703121561247157600080fd5b600061247f878288016122d5565b9450506020612490878288016122d5565b93505060406124a18782880161237d565b925050606085013567ffffffffffffffff8111156124be57600080fd5b6124ca87828801612329565b91505092959194509250565b600080604083850312156124e957600080fd5b60006124f7858286016122d5565b9250506020612508858286016122ea565b9150509250929050565b6000806040838503121561252557600080fd5b6000612533858286016122d5565b925050602083013567ffffffffffffffff81111561255057600080fd5b61255c85828601612353565b9150509250929050565b6000806000806080858703121561257c57600080fd5b600061258a878288016122d5565b945050602085013567ffffffffffffffff8111156125a757600080fd5b6125b387828801612353565b93505060406125c4878288016122d5565b92505060606125d587828801612392565b91505092959194509250565b600080604083850312156125f457600080fd5b6000612602858286016122d5565b92505060206126138582860161237d565b9150509250929050565b60006020828403121561262f57600080fd5b600061263d848285016122ff565b91505092915050565b60006020828403121561265857600080fd5b600061266684828501612314565b91505092915050565b60006020828403121561268157600080fd5b600061268f8482850161237d565b91505092915050565b600080604083850312156126ab57600080fd5b60006126b98582860161237d565b92505060206126ca8582860161237d565b9150509250929050565b6126dd81612ebf565b82525050565b6126ec81612ed1565b82525050565b60006126fd82612d67565b6127078185612d7d565b9350612717818560208601612f5a565b61272081613126565b840191505092915050565b600061273682612d72565b6127408185612d8e565b9350612750818560208601612f5a565b61275981613126565b840191505092915050565b600061276f82612d72565b6127798185612d9f565b9350612789818560208601612f5a565b80840191505092915050565b60006127a2603283612d8e565b91506127ad82613137565b604082019050919050565b60006127c5602683612d8e565b91506127d082613186565b604082019050919050565b60006127e8602583612d8e565b91506127f3826131d5565b604082019050919050565b600061280b601c83612d8e565b915061281682613224565b602082019050919050565b600061282e602483612d8e565b91506128398261324d565b604082019050919050565b6000612851601983612d8e565b915061285c8261329c565b602082019050919050565b6000612874602983612d8e565b915061287f826132c5565b604082019050919050565b6000612897602e83612d8e565b91506128a282613314565b604082019050919050565b60006128ba603e83612d8e565b91506128c582613363565b604082019050919050565b60006128dd602083612d8e565b91506128e8826133b2565b602082019050919050565b6000612900602083612d8e565b915061290b826133db565b602082019050919050565b6000612923601883612d8e565b915061292e82613404565b602082019050919050565b6000612946602183612d8e565b91506129518261342d565b604082019050919050565b6000612969601b83612d8e565b91506129748261347c565b602082019050919050565b600061298c602a83612d8e565b9150612997826134a5565b604082019050919050565b60006129af602e83612d8e565b91506129ba826134f4565b604082019050919050565b6129ce81612f29565b82525050565b60006129e08285612764565b91506129ec8284612764565b91508190509392505050565b6000602082019050612a0d60008301846126d4565b92915050565b6000608082019050612a2860008301876126d4565b612a3560208301866126d4565b612a4260408301856129c5565b8181036060830152612a5481846126f2565b905095945050505050565b6000604082019050612a7460008301856126d4565b612a8160208301846129c5565b9392505050565b6000602082019050612a9d60008301846126e3565b92915050565b60006020820190508181036000830152612abd818461272b565b905092915050565b60006020820190508181036000830152612ade81612795565b9050919050565b60006020820190508181036000830152612afe816127b8565b9050919050565b60006020820190508181036000830152612b1e816127db565b9050919050565b60006020820190508181036000830152612b3e816127fe565b9050919050565b60006020820190508181036000830152612b5e81612821565b9050919050565b60006020820190508181036000830152612b7e81612844565b9050919050565b60006020820190508181036000830152612b9e81612867565b9050919050565b60006020820190508181036000830152612bbe8161288a565b9050919050565b60006020820190508181036000830152612bde816128ad565b9050919050565b60006020820190508181036000830152612bfe816128d0565b9050919050565b60006020820190508181036000830152612c1e816128f3565b9050919050565b60006020820190508181036000830152612c3e81612916565b9050919050565b60006020820190508181036000830152612c5e81612939565b9050919050565b60006020820190508181036000830152612c7e8161295c565b9050919050565b60006020820190508181036000830152612c9e8161297f565b9050919050565b60006020820190508181036000830152612cbe816129a2565b9050919050565b6000602082019050612cda60008301846129c5565b92915050565b6000612cea612cfb565b9050612cf68282612fbf565b919050565b6000604051905090565b600067ffffffffffffffff821115612d2057612d1f6130f7565b5b612d2982613126565b9050602081019050919050565b600067ffffffffffffffff821115612d5157612d506130f7565b5b612d5a82613126565b9050602081019050919050565b600081519050919050565b600081519050919050565b600082825260208201905092915050565b600082825260208201905092915050565b600081905092915050565b6000612db582612f29565b9150612dc083612f29565b9250827fffffffffffffffffffffffffffffffffffffffffffffffffffffffffffffffff03821115612df557612df461306a565b5b828201905092915050565b6000612e0b82612f29565b9150612e1683612f29565b925082612e2657612e25613099565b5b828204905092915050565b6000612e3c82612f29565b9150612e4783612f29565b9250817fffffffffffffffffffffffffffffffffffffffffffffffffffffffffffffffff0483118215151615612e8057612e7f61306a565b5b828202905092915050565b6000612e9682612f29565b9150612ea183612f29565b925082821015612eb457612eb361306a565b5b828203905092915050565b6000612eca82612f09565b9050919050565b60008115159050919050565b60007fffffffff0000000000000000000000000000000000000000000000000000000082169050919050565b600073ffffffffffffffffffffffffffffffffffffffff82169050919050565b6000819050919050565b60006bffffffffffffffffffffffff82169050919050565b82818337600083830152505050565b60005b83811015612f78578082015181840152602081019050612f5d565b83811115612f87576000848401525b50505050565b60006002820490506001821680612fa557607f821691505b60208210811415612fb957612fb86130c8565b5b50919050565b612fc882613126565b810181811067ffffffffffffffff82111715612fe757612fe66130f7565b5b80604052505050565b6000612ffb82612f29565b91507fffffffffffffffffffffffffffffffffffffffffffffffffffffffffffffffff82141561302e5761302d61306a565b5b600182019050919050565b600061304482612f29565b915061304f83612f29565b92508261305f5761305e613099565b5b828206905092915050565b7f4e487b7100000000000000000000000000000000000000000000000000000000600052601160045260246000fd5b7f4e487b7100000000000000000000000000000000000000000000000000000000600052601260045260246000fd5b7f4e487b7100000000000000000000000000000000000000000000000000000000600052602260045260246000fd5b7f4e487b7100000000000000000000000000000000000000000000000000000000600052604160045260246000fd5b6000601f19601f8301169050919050565b7f4552433732313a207472616e7366657220746f206e6f6e20455243373231526560008201527f63656976657220696d706c656d656e7465720000000000000000000000000000602082015250565b7f4f776e61626c653a206e6577206f776e657220697320746865207a65726f206160008201527f6464726573730000000000000000000000000000000000000000000000000000602082015250565b7f4552433732313a207472616e736665722066726f6d20696e636f72726563742060008201527f6f776e6572000000000000000000000000000000000000000000000000000000602082015250565b7f4552433732313a20746f6b656e20616c7265616479206d696e74656400000000600082015250565b7f4552433732313a207472616e7366657220746f20746865207a65726f2061646460008201527f7265737300000000000000000000000000000000000000000000000000000000602082015250565b7f4552433732313a20617070726f766520746f2063616c6c657200000000000000600082015250565b7f4552433732313a2061646472657373207a65726f206973206e6f74206120766160008201527f6c6964206f776e65720000000000000000000000000000000000000000000000602082015250565b7f45524337323155524953746f726167653a2055524920736574206f66206e6f6e60008201527f6578697374656e7420746f6b656e000000000000000000000000000000000000602082015250565b7f4552433732313a20617070726f76652063616c6c6572206973206e6f7420746f60008201527f6b656e206f776e6572206e6f7220617070726f76656420666f7220616c6c0000602082015250565b7f4552433732313a206d696e7420746f20746865207a65726f2061646472657373600082015250565b7f4f776e61626c653a2063616c6c6572206973206e6f7420746865206f776e6572600082015250565b7f4552433732313a20696e76616c696420746f6b656e2049440000000000000000600082015250565b7f4552433732313a20617070726f76616c20746f2063757272656e74206f776e6560008201527f7200000000000000000000000000000000000000000000000000000000000000602082015250565b7f455243323938313a20496e76616c696420706172616d65746572730000000000600082015250565b7f455243323938313a20726f79616c7479206665652077696c6c2065786365656460008201527f2073616c65507269636500000000000000000000000000000000000000000000602082015250565b7f4552433732313a2063616c6c6572206973206e6f7420746f6b656e206f776e6560008201527f72206e6f7220617070726f766564000000000000000000000000000000000000602082015250565b61354c81612ebf565b811461355757600080fd5b50565b61356381612ed1565b811461356e57600080fd5b50565b61357a81612edd565b811461358557600080fd5b50565b61359181612f29565b811461359c57600080fd5b50565b6135a881612f33565b81146135b357600080fd5b5056fea26469706673582212204b884f8d751daa2ab5ffed09a4b3e6ac8dcd4f468b113cd9a7f067ff97f859e564736f6c63430008010033",
  "linkReferences": {},
  "deployedLinkReferences": {}
}